:1000000071C000008EC000008CC000008AC00000DB
:1000100088C0000086C0000084C0000082C00000CC
:1000200080C000007EC000007CC000007AC00000DC
:1000300078C0000076C0000074C0000072C00000EC
:1000400070C000006EC000006CC000006AC00000FC
:1000500068C0000066C0000064C0000062C000000C
:1000600060C000005EC000005CC000005AC000001C
:1000700058C0000056C0000054C0000052C000002C
:1000800050C000004EC000004CC000004AC000003C
:1000900048C0000046C0000044C0000042C000004C
:1000A00040C000003EC000003CC000003AC000005C
:1000B00038C0000036C0000034C0000032C000006C
:1000C00030C000002EC000002CC000002AC000007C
:1000D00028C0000026C0000024C0000022C000008C
:1000E00020C0000011241FBECFEFD1E2DEBFCDBF84
:1000F00000E00CBF12E0A0E0B2E0EAE1F7E000E0CF
:100100000BBF02C007900D92AA32B107D9F722E0C7
:10011000AAE2B2E001C01D92A037B207E1F71ED2F9
:10012000FAC26ECFFC010FB6F89460916C02709128
:100130006D0280916E0290916F020FBE309721F098
:10014000608371838283938308958FEF81B988E000
:1001500090E02FEF22B93FEB44ED51E031504040A9
:100160005040E1F700C0000012B83FEB44ED51E011
:10017000315040405040E1F700C00000019751F776
:100180008FEF82B908958FEF81B983E090E02FEF70
:1001900022B93FE342E45FE0315040405040E1F794
:1001A00000C0000012B83FE342E45FE0315040403D
:1001B0005040E1F700C00000019751F78FEF82B97E
:1001C00008958FEF81B983E090E02FEF21B93FE7E9
:1001D0004AE156E0315040405040E1F700C0000095
:1001E00022B96FE73AE146E0615030404040E1F724
:1001F00000C0000012B8019749F780E090E041E0AC
:1002000050E09A01082E02C0220F331F0A94E2F731
:1002100022B96FE32DE033E0615020403040E1F738
:1002200000C0000001968830910559F787E090E002
:1002300041E050E09A01082E02C0220F331F0A94B9
:10024000E2F722B96FE32DE033E061502040304007
:10025000E1F700C00000019768F78FEF82B90895B9
:1002600083E090E02FEF21B93FE74AE156E03150BB
:1002700040405040E1F700C0000022B93FE74AE1AA
:1002800056E0315040405040E1F700C0000012B845
:10029000019749F7AAE1B2E024E032E0FD0132978C
:1002A0008081809582B98FE191EA47E0815090404A
:1002B0004040E1F700C00000E217F30781F7129712
:1002C0008C91809582B95FE181EA97E0515080403E
:1002D0009040E1F700C00000A217B30781F708952E
:1002E0009FEF92B92FEF34E34CE021503040404073
:1002F000E1F700C0000082B98FEF24E33CE08150B9
:1003000020403040E1F700C0000092B9089514B8D1
:100310008FEF81B908950F931F93CF93DF93161634
:100320001706DCF48C01EC01660F771F060F171F10
:1003300087D187709078992324F40197886F9F6FF5
:100340000196880F991FFC01E85EFD4F8081918125
:1003500089939993C017D10759F7DF91CF911F91D6
:100360000F9108959C0183B18F3F51F4FB01EE0F73
:10037000FF1FE20FF31F1182108293B19F3FD9F349
:1003800093B1660F771FF901E60FF71F892F90E0F1
:10039000918380830895CF93DF9314161506D4F4C8
:1003A000FC01A62FB72F440F551F840F951F21E086
:1003B00030E050E040E0C191D1916D917D91C61740
:1003C000D70711F0252F342FE817F907A1F72130AF
:1003D000310519F4F6DE44DF01C042DFDF91CF9131
:1003E0000895CF93DF93D9011197E0912A02F091FC
:1003F0002B02AE17BF0761F4EB01BC01AA0FBB1FB4
:10040000A80FB91F4D935C93A901CE01C4DF12C0A0
:10041000E217F3077CF4EE0FFF1FE80FF91F51837B
:10042000408380912A0290912B02019690932B0297
:1004300080932A02DF91CF910895CF92DF92EF92BD
:10044000FF920F931F93CF93DF938C017B016A017F
:10045000E90180912C0290912D0282179307A4F458
:10046000880F991FF801E80FF91F8081918138DF0B
:1004700080912C0290912D02019690932D028093F1
:100480002C028C179D0764F310922D0210922C02FF
:1004900010922F0210922E021C161D0694F460E09A
:1004A00070E088E392E05EDF60912E0270912F028F
:1004B0006F5F7F4F70932F0260932E026C177D0742
:1004C00084F380913002909131028C179D070CF0DB
:1004D0003CC0880F991FFC01E85CFD4F40815181B1
:1004E000F801E80FF91F808191818417950799F031
:1004F0000FC0880F991FF801E80FF91F4081518143
:10050000FC01E85CFD4F808191814817590719F083
:100510003ADEA6DE1AC09601B801C70162DF219655
:100520008091300290913102019690933102809334
:1005300030029E01A601B701C8017FDF8091300221
:10054000909131028C179D07A4F2DF91CF911F91FA
:100550000F91FF90EF90DF90CF900895D8DEF5DDFA
:100560002FE38DE093E0215080409040E1F700C000
:10057000000080E090E0D6DD66D068E070E08AE4BC
:1005800092E0C9DE2FE38DE093E02150804090405F
:10059000E1F700C00000209128023091290248E0D4
:1005A00050E06CE572E08AE492E047DF80E090E0A2
:1005B00008958F929F92AF92BF92CF92DF92EF9267
:1005C000FF92CF93DF93EC01688179818A819B81CF
:1005D000611571058105910521F464E279ED8BE5E2
:1005E00097E02DE133EF41E050E038D049015A0166
:1005F0009B01AC01A7EAB1E44DD06B017C01ACEEEC
:10060000B4EFA501940152D0DC01CB018C0D9D1DEE
:10061000AE1DBF1DB7FF03C00197A109B048888375
:100620009983AA83BB839F77DF91CF91FF90EF904F
:10063000DF90CF90BF90AF909F908F900895B9CFEB
:1006400080E092E0B6CFA0E0B0E08093000290930B
:100650000102A0930202B09303020895052E97FBB6
:1006600016F400940FD057FD05D024D007FC02D01B
:1006700046F408C050954095309521953F4F4F4F17
:100680005F4F089590958095709561957F4F8F4F3E
:100690009F4F089531D0A59F900DB49F900DA49FBA
:1006A000800D911D11240895B7FFF4CFF3DF821B55
:1006B000930B0895A1E21A2EAA1BBB1BFD010DC0CE
:1006C000AA1FBB1FEE1FFF1FA217B307E407F50702
:1006D00020F0A21BB30BE40BF50B661F771F881FDE
:1006E000991F1A9469F760957095809590959B0174
:1006F000AC01BD01CF010895A29FB001B39FC0011D
:10070000A39F700D811D1124911DB29F700D811D3D
:0A0710001124911D0895F894FFCF05
:10071A00010000000000FE00FD00FB00F700EF00F2
:10072A00DF00BF007F00FF00FE00FD00FB00F700B6
:0A073A00EF00DF00BF007F000100A8
:040000030000014AAE
:00000001FF
